04:35:55.024593 ff:ff:ff:ff:ff:ff > 00:00:0a:01:01:02, ethertype Unknown (0x7777), length 44: 
	0x0000:  0000 4500 001c 0001 0000 3f11 64cb 0a01  ..E.......?.d...
	0x0010:  0202 0a01 0102 1e61 1e61 0008 714e       .......a.a..qN
04:36:27.013103 ff:ff:ff:ff:ff:ff > 00:00:0a:01:01:02, ethertype IPv4 (0x0800), length 42: 10.1.2.2.7777 > 10.1.1.2.63448: UDP, length 0
