00:29:03.482110 ff:ff:ff:ff:ff:ff > 00:00:0a:01:02:02, ethertype Unknown (0x7777), length 44: 
	0x0000:  0000 4500 001c 0001 0000 3f11 64cb 0a01  ..E.......?.d...
	0x0010:  0102 0a01 0202 7560 1e61 0008 5517       ......u`.a..U.
00:29:05.029969 ff:ff:ff:ff:ff:ff > 00:00:0a:01:02:02, ethertype Unknown (0x7777), length 44: 
	0x0000:  0000 4500 001c 0001 0000 3f11 64cb 0a01  ..E.......?.d...
	0x0010:  0102 0a01 0202 cb5e 1e61 0008 ff18       .......^.a....
